:020000040800F2
:100000000000012009000008DFF81400016841F435
:100010007001016072B60348804703480047000042
:1000200088ED00E03D3500082D000008DFF80CD019
:1000300000F0D2FB00480047C15200080000012038
:1000400072B634483449026841EA0201016033481B
:100050004FF00101016032484168016001688A88FF
:100060004FF0100342EA03028A80D1F800C00CF17D
:10007000240C0CF1040CBCE8FF008CF309884FF051
:10008000020C8CF31488AE4662B63047EFF3108052
:1000900072B67047EFF3108062B6704780F3108835
:1000A000704720484FF0805101607047EFF3108C8B
:1000B00072B61D4A126822B12DE900509047BDE882
:1000C0000050EFF309801EF0100F08BF20ED108BD9
:1000D00040F804ED20E9F01F114D4FF010082E6894
:1000E0003060B78827EA0807B78068682860878883
:1000F00047EA08078780016800F018B851F804EB58
:100100001EF0100F08BF00F016B881F309888CF3B9
:100110001088704720ED00E00000FFFF9C040020E5
:10012000A004002004ED00E08404002030C9B1E800
:10013000C01FFFF7E3BFB1EC088BB1EC08CBFFF7B2
:10014000E4BF2DE9F05F0546002092469B468846B5
:100150000646814640241BE0284641464746224643
:1001600000F053FA53465A46C01A914110D3114633
:100170001846224600F03AFA2D1A67EB01084F465E
:1001800022460120002100F031FA17EB00094E4110
:10019000201EA4F10104DFDC484631462A464346CE
:1001A00000F000B830BCBDE8C09FA0F16101192982
:1001B00000D82038704740EA01039B0703D009E0CC
:1001C00008C9121F08C0042AFAD203E011F8013B43
:1001D00000F8013B521EF9D27047D2B201E000F89C
:1001E000012B491EFBD270470022F6E710B51346DB
:1001F0000A4604461946FFF7F0FF204610BD30B509
:1002000005462A460B4612F8010B13F8014B08B1BC
:10021000A042F8D01CB1002802D06D1CF1E728469E
:1002200030BD421C10F8011B0029FBD1801A704719
:1002300010B5002200E0521C835C8C5CA34201D10B
:10024000002BF8D1D8B2E1B2401A10BD0FB400B5FE
:100250008DB010A909900B9000914FF0FF300A90DB
:1002600000200C9005480690054807906A4609A8AA
:100270000F9900F0EFF90DB05DF814FB710600085E
:100280008F0600082DE9FF5F1D464FF0FF3BD5E9C3
:10029000014691465F464FF00008A9697F1C01980E
:1002A0008847296A824688470028F6D1BAF1FF3F7D
:1002B0000CD024F4C064002E19DD600614D5BAF108
:1002C0002B0F09D0BAF12D0F0ED103E0584604B020
:1002D00000F07EB844F48064A9697F1C01988847C7
:1002E000761E8246002E02DDBAF1300F03D0B9F13E
:1002F000000F26D032E0A969761E44F400747F1CFA
:10030000019888478246002E05DDBAF1780F06D0A5
:10031000BAF1580F03D0B9F1000F10D01EE0B9F1B7
:10032000000F02D0B9F1100F18D1A969761E24F47C
:1003300000747F1C019888478246102002E0082044
:1003400000E00A20814609E008FB0908A969761E39
:1003500044F400747F1C019888478246002E05DD16
:100360004946504600F061F90028EDDAE969019844
:100370008847A00502D46FF00100A8E7E00725D167
:10038000600613D5600502D5C8F1000000E04046C4
:1003900029680A1D2A600968220501D5087015E040
:1003A000220701D5088011E008600FE02868011DD0
:1003B00029600068210502D580F8008006E0210749
:1003C00002D5A0F8008001E0C0F8008038467EE742
:1003D00030BCBDE8C09F2DE9FF5FD2E901A74FF017
:1003E0000008916999461446DDF838B046460198F0
:1003F0008847054659EA0B0005D009E0A169761C3B
:10040000019888470546216A284688470028F5D183
:10041000681C03D05FEACA7005D015E04FF0FF30CA
:1004200004B000F048B82068011D2160D0F80080B9
:100430000AE05FEACA7001D108F8015BA169761C85
:100440007F1E019888470546002F1ADD681C18D0CA
:10045000B9F1000F0DD0E81705EBD060421120F084
:100460001F0059F822102A1A012090400142E0D1C1
:1004700007E0BBF1000FDCD1216A2846884700283D
:10048000D7D0E16901988847BBF1000F07D1002E52
:1004900005DD5FEACA7002D1002188F80010A0686B
:1004A000B84203DDBBF1000F03D017B16FF00100BC
:1004B000B6E73046B4E730BCBDE8C09F2DE9F04D4B
:1004C00081EA030404F0004B21F0004514464FF08C
:1004D000000A23F0004150EA050220D054EA01024C
:1004E0001DD0C5F30A570246C5F31303C1F3130029
:1004F000C1F30A5640F4801543F48013A7EB0608B5
:10050000101BD64608F2FD3873EB050002D308F144
:10051000010801E092185B41B8F1000F03DA0020F6
:100520000146BDE8F08D00204FF480110646844658
:100530000EE0171B73EB050705D3121B63EB0503D6
:1005400006434CEA010C49084FEA300092185B411F
:1005500050EA0107EDD152EA030012D082EA04000A
:1005600083EA0501084305D0101BAB4106D20122E6
:10057000002306E000224FF0004302E06FF001028A
:1005800053101AEB06004CEB085110EB0A0041EB3C
:100590000B01BDE8F04D00F0C2B80EB540F233419A
:1005A00002910021CDE900110A460B4600F0C6F881
:1005B00003B000BD01F0004330B421F0004150EA27
:1005C000010206D00A0DA2F56072C1F31301002AE0
:1005D00002DC30BC00207047440F44EAC104C10073
:1005E000E01830BC00EBC25000F062B8202A04DBF7
:1005F000203A00FA02F1002070479140C2F1200336
:1006000020FA03F3194390407047202A04DB203A74
:1006100021FA02F00021704721FA02F3D040C2F122
:10062000200291400843194670473A2800D23038DA
:1006300020F02002412A01D3A2F13700884201D3E1
:100640004FF0FF30704700000268114413780160DA
:1006500018467047D1600449516104491162002174
:100660001161114600F0D0B849060008FD070008E6
:10067000426842B1016811F8013B23B1521EC0E942
:100680000012184670470121C160881E70474268F9
:100690005AB1C368016843B983688B4205D0491ECB
:1006A000521CC0E90012002070474FF0FF30704725
:1006B0000029A8BF7047401C490008BF20F0010076
:1006C000704710B4B0FA80FC00FA0CF050EA010454
:1006D00004BF10BC704749B1CCF1200421FA04F4E6
:1006E00011FA0CF118BF012121430843A3EB0C01BF
:1006F000CB1D4FEA00614FEA102042BF002010BC22
:10070000704700EBC35010440029A4BF10BC7047D1
:10071000401C490008BF20F0010010BC704710B514
:10072000141E73F1000408DA401C41F10001921814
:100730005B411A4301D120F0010010BD2DE9F04DBD
:1007400092469B4611B1B1FA81F202E0B0FA80F212
:1007500020329046FFF74AFF04460F4640EA0A005F
:1007600041EA0B0153465A46084313D0114653EA57
:10077000010019D0C8F140025046FFF746FF054678
:100780000E46504659464246FFF730FF084305D013
:10079000012004E020463946BDE8F08D00200543E5
:1007A00046EAE0762C4337430A986305E40AA0EB57
:1007B00008000022FD0A44EA47540A3002D500200E
:1007C0000146E9E7010510196941DDE9084500190D
:1007D0006941BDE8F04DA2E7064C074D06E0E06830
:1007E00040F0010394E8070098471034AC42F6D378
:1007F000FFF720FCDC7900080C7A0008C0B24FF447
:10080000F05100F09BB900002DE9F34F8BB04FF091
:10081000000801F10C000C464FF0010B46460DF1AB
:10082000080A01906269012101989047051E2DD0A8
:10083000252D2CD0216A8847C0B162690121019819
:100840009047216A88470028F7D1411E62690198C4
:10085000904700E0761CA1690B988847216A884779
:100860000028F7D1E1690B988847DBE7A1690B986D
:1008700088470746A84201D1761CD3E7E1690B9867
:1008800088477F1C02D1B8F1000F6FD046E10027E6
:1008900062693D463946019890472A2804D1626929
:1008A0000121019890470125DFF8849262690121B6
:1008B00001989047A0F130010A290AD24F45E5DCA2
:1008C00007EB870100EB4107303FDFD445F010050F
:1008D000ECE7E90601D46FF000476C280AD04C28F9
:1008E00014D0682815D06A280DD074281CD07A2816
:1008F0001AD01DE062690121019890476C2802D04E
:1009000045F0040514E045F002050DE045F0200532
:100910000AE06269012101989047682802D045F0F9
:10092000080505E045F400656269012101989047DA
:10093000C4E9015765283DD019DC58287AD00CDC71
:10094000452837D004DC252826D0412831D131E094
:1009500046282FD047282CD12CE05B2877D061285F
:1009600028D063287CD0642823D15AE0D0E06F28B7
:1009700048D008DC66281DD067281BD0692821D004
:100980006E2816D127E0702845D0732868D07528C6
:1009900047D078280DD14DE0A1690B9888470546CE
:1009A00025283FF469AFE1690B9888476D1C3FF437
:1009B0006AAFB3E023466A466FF001000B99AFF3CC
:1009C00000809EE045F040006060A80723464FF09D
:1009D000000236D43EE0E8077FF447AF2068011DEF
:1009E00021600068290501D506701BE7290701D59C
:1009F000068017E7A90703D5F117C0E9006111E7E1
:100A000006600FE745F040006060A80723464FF0FE
:100A1000080216D41EE040F60E0125EA01006060CF
:100A200016E045F040006060A80723464FF00A0238
:100A300007D40FE045F040006060A80708D52346C2
:100A400010226FF001000B99AFF3008059E007E02E
:100A5000234610226FF001000B99FFF713FC50E0C2
:100A60004FF000094F464B46632802D05B2806D062
:100A700040E0E80601D40120A06001273AE0626965
:100A80000121019890475E2805D14FF00109626964
:100A9000494601989047216939B900210A465346D1
:100AA00043F82120491C0829FADBB0B3216969B950
:100AB000C11700EBD16253110AEB830122F01F0230
:100AC000821A01200B68904003430B606269012188
:100AD000019890475D28E8D1B9F1000F09D00020B6
:100AE000514651F82020D24341F82020401C0828CC
:100AF000F7DB02AB224600976FF001000B99FFF77E
:100B00006AFC00280CDA401C08D1BBF1000F05D0AC
:100B10004FF0FF300DB000F00DB8FFE74046F9E7A9
:100B2000E90701D108F1010806444FF0000B79E60E
:100B3000CCCCCC0C30BCBDE8C08F00007F2801D9E4
:100B4000002208E0064A02EB5002C007127800D1EA
:100B5000120902F00F020120904008407047000087
:100B6000EF78000870B58C1810F8015B15F00703DA
:100B700001D110F8013B2A1106D110F8012B03E036
:100B800010F8016B01F8016B5B1EF9D12B0705D43E
:100B90000023521E0DD401F8013BFAE710F8013B87
:100BA000CB1A921C03E013F8015B01F8015B521EA3
:100BB000F9D5A142D8D3002070BD000010B504467D
:100BC00001F0F6F8462001F0B7F800BF01F046F951
:100BD0000028FBD1642004F0DFFA204601F0ACF8D5
:100BE00001F03CF90028FBD1642004F0D5FA01F0B3
:100BF00009F9BDE81040052002F03AB810B502F03E
:100C000045FCB42002F034F802F01CFC0B4804460A
:100C10000178407800EB012080B26080FFF7BDFCD6
:100C20009FED071B53EC112BFFF748FCFFF7C2FCAD
:100C300000EE100A84ED010A10BD0000300500200E
:100C4000333333333333F33F70B5044600F0DBF80E
:100C50000546601C00D0641C00F0D5F8401BA04283
:100C6000FAD370BD2DE9F84FDFF864B100234FF0DF
:100C7000010C4FF0030A4FF00F090BF1040EA0E036
:100C80000CFA03F6324072D04C68022C01D0122CC0
:100C90000ED1DC0800EB8408D8F820405D07EF0E89
:100CA00009FA07F5AC430D69BD402543C8F820504B
:100CB00007685D0091F804800AFA05F408F003085B
:100CC000A74308FA05F848EA0708C0F800804F680B
:100CD000012F05D0022F03D0112F01D0122F11D1D7
:100CE0008768D1F80C80A74308FA05F848EA070896
:100CF000C0F808804768B7430E79C6F300169E40D7
:100D00003E434660C668A6438C68AC403443C4602A
:100D10004C68E40054D52F4C256E45F0010525663E
:100D2000246E23F0030504F0010400942A4C2E19CC
:100D3000B4689D072F0F09FA07F5AC43B0F1904F47
:100D400004D0264DA84203D1012512E0002510E071
:100D5000234DA84201D102250BE0224DA84201D12A
:100D6000032506E0204DA84202D1042501E027E03A
:100D70000725BD402543B560DBF800405D464E6861
:100D80009443F60300D514432C60DEF8004075460A
:100D90004E689443B60300D514432C600C4D0835BF
:100DA0002C684E689443F60200D514432C60084D1D
:100DB0000C352C684E689443B60200D514432C6061
:100DC0005B1C0A6832FA03F47FF45AAF00F00EB8E5
:100DD00000040140001002400000014000040048EF
:100DE00000080048000C00480010004818BCBDE88E
:100DF000E08F0069084000D0012070470AB181618E
:100E000070478162704710B502F058F810BD10B5F8
:100E1000032000F089F8002000F004F800F016F834
:100E2000002010BD10B5044607484FF47A710068E1
:100E3000B0FBF1F000F088FD00222146501E00F0CA
:100E400053F8002010BD0000000400201E4808B523
:100E5000016E41F001010166016E01F00101009196
:100E6000816D41F080518165806D00F0805000906F
:100E7000032000F059F8002211466FF00B0000F03B
:100E800033F8002211466FF00A0000F02DF800221E
:100E900011466FF0090000F027F800221146501F9C
:100EA00000F022F800221146101F00F01DF8002269
:100EB0001146901E00F018F80022BDE808401146C7
:100EC000501E00F011B8000000100240002809DB9D
:100ED00000F01F02012191404009800000F1E02054
:100EE000C0F8001170470000F0B40E4B1B680C46B0
:100EF000C3F30223C3F10705042D00D90425191DEE
:100F0000072901D2002300E0DB1E012606FA05F1C5
:100F1000491E214099409E40761E16403143F0BC48
:100F200002F0B6BD0CED00E0064900F007020868CB
:100F30004FF6FF03184040EA0220034A10430860BE
:100F4000704700000CED00E00000FA051549B0F50F
:100F5000007F0868C0F3412009D0022805D0086846
:100F600020F4C06040F480600860002070470128D1
:100F7000FBD0086820F4C06040F4007008600A48A4
:100F80000A4A0068B0FBF2F03222504300E0401EF3
:100F900010B14A695205FAD448694005E5D50320E5
:100FA00070470000007000400004002040420F0025
:100FB0000248006800F4C060704700000070004004
:100FC0002DE9F84F044600270088A84D3E4600054D
:100FD00015D5606C60B1B0F5000F04D0B0F5400FCE
:100FE0002BD001270AE0E86840F48030E86024E074
:100FF0000021201D02F052F907001ED03E46206855
:1010000080033AD5A86D4FF00008C00009D4A86D40
:1010100040F08050A865A86D4FF0010800F08050A6
:101020000090DFF84CA2DAF8001041F48071CAF8A1
:101030000010FFF7E8FE814610E0D5F88800616CEB
:1010400020F440000843C5F88800D8E7FFF7DBFE2E
:10105000A0EB0900022801D9032705E0DAF8000017
:10106000C005F3D5002F7DD04FEA0706B8F1000F79
:1010700003D0A86D20F08050A8652078C00707D065
:10108000D5F88800216A20F003000843C5F88800DD
:101090002078800707D5D5F88800616A20F00C0019
:1010A0000843C5F888002078400707D5D5F88800A0
:1010B000A16A20F030000843C5F888002078800637
:1010C00007D5D5F88800E16A20F440600843C5F8E8
:1010D00088002088800507D5D5F88800E16B20F4CA
:1010E00040200843C5F888002088400507D5D5F87A
:1010F0008800216C20F440100843C5F8880020784F
:10110000400607D5D5F88800216B20F440500843ED
:10111000C5F888002078000607D5D5F88800616BEF
:1011200020F440400843C5F888002088C00507D552
:10113000D5F88800A16B20F440300843C5F888003A
:1011400020684FF0006700034FF0806850D5D5F855
:101150008800A16C20F040600843C5F88800A06CAE
:10116000B84200E005E03BD1E86840F48010E86058
:101170003EE0D5F8900010F4407014D0A16D81428B
:1011800011D0D5F89000D5F8901020F4407041F4BB
:101190008031C5F89010D5F8901021F48031C5F851
:1011A0009010C5F89000C00711D0FFF72CFE07463D
:1011B00041F2883907E000BFFFF725FEC11B494512
:1011C00001D9032652E7D5F890008007F4D5D5F869
:1011D0009000A16D20F440700843C5F8900045E7E9
:1011E000404505D10121201D02F058F800B1064606
:1011F0002068400317D5D5F88800E16C20F04060E6
:101200000843C5F88800E06CB84204D1E86840F4AF
:101210008010E86007E0404505D10121201D02F063
:101220003DF800B106462088400411D5D5F8880065
:10123000216D20F040500843C5F88800206DB0F1C2
:10124000805F05D10221201D02F028F800B106467A
:101250002088000406D555F8880F616D20F0804085
:1012600008432860304600F005B800000010024036
:101270000070004018BCBDE8E08F00002DE9F04789
:101280000F46050058D03E4E306800F00700B842C7
:1012900009D2306820F0070038433060306800F031
:1012A0000700B84248D12878364CC0072CD068686F
:1012B000032811D0022812D0216898B149050029CD
:1012C0003ADAA16821F003010143A160FFF79BFD19
:1012D000804641F2883910E021688901EFE72168F2
:1012E0008903ECE78907EAE7FFF78DFDA0EB08012A
:1012F000494502D90320BDE8F087A068696800F07D
:101300000C00B0EB810FEFD12878800705D5A068DD
:10131000A96820F0F0000843A060306800F00700E2
:10132000B8420BD9306820F007003843306030688D
:1013300000F00700B84201D00120DCE72878400720
:1013400005D5A068E96820F4E0600843A06028782B
:10135000000706D5A068296920F4605040EAC10062
:10136000A06000F035F8A168074AC1F30311515C91
:10137000C840064908600020FFF754FD0020BAE786
:1013800000200240001002402C6F000800040020E2
:101390000448054900688968044AC1F30221515C88
:1013A000C840704700040020001002406C6F000825
:1013B0000448054900688968044AC1F3C221515CA8
:1013C000C840704700040020001002406C6F000805
:1013D00030B52D49002318468A682C4C12F00C0FAA
:1013E0004FEA640514D08A68C2F38102032A04D14B
:1013F000CA6802F00302012A0AD08A68C2F3810295
:10140000012A19D08A68C2F38102022A16D016E096
:101410000A68120704D4D1F89420C2F3032202E030
:101420000A68C2F303121A4B53F822308A6812F08A
:101430000C0F04D1184602E0204600E028468A68D6
:10144000C2F38102032A1DD1C868CA6800F00300F4
:10145000C2F30212521C022804D0032805D0B3FBA9
:10146000F2F004E0B4FBF2F001E0B5FBF2F0CA6880
:10147000C968C2F306225043C1F34161491C4900C7
:10148000B0FBF1F030BD0000001002400024F40079
:101490003C6F00082DE9F84304007DD02078FE4D14
:1014A000C0065DD5A86810F00C0F0AD0A06900280E
:1014B000286873D040F001002860FFF7A4FC0646BE
:1014C00055E02868800702D5A0690028E5D0216A88
:1014D0002868000703D5286800F0F00004E0D5F87C
:1014E0009400F02202EA1010814216D9084601F059
:1014F0006BFF002850D1286840F008002860286859
:10150000216A20F0F000084328606868E16920F44F
:101510007F4040EA0120686015E0286840F008003C
:1015200028602868216A20F0F00008432860686875
:10153000E16920F47F4040EA01206860206A01F000
:1015400043FF0028D6D1FFF743FFA968D34AC1F370
:101550000311515CC840D24908600020FFF762FCCB
:101560002CE000BFFFF74FFC801B02287ED82868C4
:101570008007F7D5286840F0080028602868216AAD
:1015800020F0F000084328606868E16920F47F409B
:1015900040EA0120686011E0B2E0FFE720F00100BE
:1015A0002860FFF730FC064605E000BFFFF72BFC84
:1015B000801B0228DAD828688007F7D42078C00773
:1015C00048D0A868C0F3810002281DD0A868C0F3E5
:1015D0008100032803D1E868C043800714D0606805
:1015E000B0F5803F17D0B0F5A02F286817D020F4B1
:1015F00080302860286820F4802028606068E0B18E
:10160000FFF701FC064614E02868800322D56068D5
:10161000002875D01EE0286840F48030EDE740F4E3
:1016200080202860F7E700BFFFF7EDFB801B6428F0
:101630009CD828688003F7D50CE0FFF7E4FB06464A
:1016400005E000BFFFF7DFFB801B64288ED8286809
:101650008003F7D42078800742D5A868C0F38100C2
:10166000012816D0A868C0F3810000E0CEE003286E
:1016700004D1E86800F0030002280AD0E0680028DE
:1016800028681DD040F480702860FFF7BCFB064638
:101690000BE0286840050BD5E0680028B9D007E0CA
:1016A000FFF7B1FB801B022884D828684005F7D5D6
:1016B0006868217C20F0F85040EA016068600FE023
:1016C00020F480702860FFF79EFB064605E000BF0F
:1016D000FFF799FB801B0228AAD828684005F7D499
:1016E0002078000729D560690028D5F8940013D028
:1016F00040F00100C5F89400FFF785FB064606E0C0
:101700001DE100BFFFF77FFB801B02287ED8D5F8C4
:1017100094008007F6D510E020F00100C5F8940091
:10172000FFF771FB064604E0FFF76DFB801B022804
:101730006CD8D5F894008007F6D42078400761D59E
:10174000A86D0026C00008D4A86D40F08050A865A0
:10175000A86D012600F08050009052480168C9052C
:1017600011D40168804641F480710160FFF74BFBA2
:10177000074604E0FFF747FBC01B022846D8D8F80D
:101780000000C005F6D5A068012815D00528D5F8B9
:10179000900016D020F00100C5F89000D5F8900018
:1017A00020F00400C5F89000A06841F28838B8B174
:1017B000FFF729FB07460EE0D5F8900040F0010046
:1017C000F0E740F00400C5F89000F5E7FFF71BFBD9
:1017D000C11B41451AD8D5F890008007F6D50CE01A
:1017E000FFF711FB074604E0FFF70DFBC11B414566
:1017F0000CD8D5F890008007F6D41EB1A86D20F063
:101800008050A8652078800629D500E089E0606ACC
:101810000028D5F8980011D040F00100C5F89800D4
:10182000FFF7F1FA064604E0FFF7EDFA801B022805
:101830007DD8D5F898008007F6D510E020F001009B
:10184000C5F89800FFF7DFFA064604E0FFF7DBFA79
:10185000801B02286BD8D5F898008007F6D4A06AC0
:10186000C8B1A968C1F38101032968D0022828689A
:1018700020F08070286019D02868000103D4E8683F
:1018800020F00300E860E86807490840E860FFF7D7
:10189000BAFA04464EE050E0001002402C6F0008F7
:1018A0000004002000700040FFFFEEFEFFF7ABFADF
:1018B000064604E0FFF7A7FA801B022837D82868FD
:1018C0008001F7D4206B54F82C1F00011038084316
:1018D000218A1C4A490802EB4151A26841EA0221CF
:1018E0000843217D4FF07E42490802EB41610843E5
:1018F000217B40EAC160E860286840F08070286081
:10190000E86840F08070E860FFF77DFA044604E084
:10191000FFF779FA001B022809D828688001F7D55B
:101920000BE004E0FFF76FFA001B022802D9032046
:10193000BDE8F88328688001F4D40020F8E701208E
:10194000F6E700000000E0FF10B5401EB0F1807F18
:1019500001D3012010BD4FF0E02460610F2160171A
:1019600002F096F80020A06107202061002010BD41
:1019700010B5040003D094F8710010B107E0012005
:1019800010BD002084F87000204600F027F82420C5
:1019900084F871002068016821F00101016020468F
:1019A00001F080FE0128EBD0606A10B1204601F002
:1019B000E7FD2068416821F490414160206881681A
:1019C00021F02A0181602068016841F00101016075
:1019D0002046BDE8104001F037BE0000F0B5214FB1
:1019E00006680022204902230324072587B04FF010
:1019F0009040BE4217D10E6E46F480460E66096EC8
:101A000002AE01F4804105916102CDE9001386E840
:101A100034006946FFF726F9002211462520FFF71A
:101A200063FA252019E0114FBE4218D18E6D46F49D
:101A300000368E65896D02AE01F4003105910C21EE
:101A4000CDE9001386E834006946FFF70BF9002260
:101A500011462620FFF748FA2620FFF737FA07B08D
:101A6000F0BD00000038014000100240004400407A
:101A70002DE9F843044690F871001F4616460D46BE
:101A800020284BD1C5B1BEB194F87000012845D0D3
:101A9000012084F870004FF00008C4F87480212001
:101AA00084F87100FFF7AFF9A4F850608146A4F8FC
:101AB00052604FF4805615E00120BDE8F883802184
:101AC000204601F019FFD8B9A068B04201D12069C1
:101AD000C0B115F8010B21680885B4F85200401E0A
:101AE000A4F85200B4F852004B464FF000020097A1
:101AF0000028E4D14FF04001204601F0FDFE30B156
:101B00000320DAE735F8020BC0F30800E3E72020F2
:101B100084F8710084F870800020CEE70220CCE7C2
:101B200010B5FFF774F901F0BBFC0648006803F03C
:101B30003FFB01F0C9F901F05BFABDE8104002A0DB
:101B400001F06ABF0004002057656C636F6D65206B
:101B5000746F20496F542D436C75622C2054686952
:101B600073206973204556422D4D3120426F6172BA
:101B7000642E0D0A000000002DE9F041174688464A
:101B8000064600241DE0305DFEF70FFBC5B230199C
:101B90004078FEF70AFBC0B2392D01D9373D00E08D
:101BA000303DE9B2392801D9373800E03038C0B2C9
:101BB00004EBD47240EA011008EB6201A41C087027
:101BC00024B2BC42DFDBBDE8F081000070B5134CED
:101BD0004FF40065002229462046FFF70FF92068E0
:101BE00020F440102060206840F480102060002223
:101BF00069102046FFF702F9022003F0CDFA012216
:101C000029462046FFF7FAF8022003F0C5FA2946D4
:101C10002046BDE870400022FFF7F0B800080048F9
:101C2000114810B5C16C86B041F00401C164C06CAC
:101C30000E4C00F0040005904FF44060009001202D
:101C400001900220039069462046FFF70BF801221D
:101C5000D1022046FFF7D2F8012291022046FFF779
:101C6000CDF806B010BD000000100240000800488A
:101C700070B5134C4FF40065002229462046FFF74B
:101C8000BDF8206820F440102060206840F48010E7
:101C90002060012291022046FFF7B0F8022003F0F5
:101CA0007BFA012229462046FFF7A8F8022003F01C
:101CB00073FA29462046BDE870400022FFF79EB81F
:101CC000000800482DE9F0471A4C8046206820F4AF
:101CD000401020602068206000252E464FF40067E9
:101CE0004FF48069002239462046FFF787F802202A
:101CF00003F052FA012239462046FFF77FF86806C2
:101D0000050E49462046FFF774F808B16D1CEDB288
:101D1000012003F041FA761CF6B2082EE2D3B8F1A6
:101D2000000F04D0FFF752FF2846BDE8F087FFF709
:101D30009FFFF9E7000800482DE9F0411B4C0646DB
:101D40002046216821F440112160216841F480116E
:101D500021604FF4006700223946FFF74FF8002555
:101D60004FF48068300601D5012200E00022414690
:101D70002046FFF743F87006060E022003F00CFA27
:101D8000012239462046FFF739F8022003F004FA11
:101D9000002239462046FFF731F8022003F0FCF913
:101DA0006D1CEDB2082DDDD3BDE8F08100080048C0
:101DB00070B5134C206820F440102060206840F477
:101DC000801020600122950229462046FFF716F870
:101DD0000122D60231462046FFF710F8042003F016
:101DE000DBF9002229462046FFF708F8042003F01B
:101DF000D3F931462046BDE870400022FEF7FEBF11
:101E00000008004870B5144C206820F44010206091
:101E1000206840F4801020604FF4006500222946BD
:101E20002046FEF7EBFF6E10002231462046FEF7FB
:101E3000E5FF042003F0B0F9012229462046FEF711
:101E4000DDFF012231462046FEF7D8FFBDE8704095
:101E5000042003F0A1B90000000800482DE9F0417A
:101E6000184C0025206820F4401020602068206075
:101E70000122960231462046FEF7C0FF042003F0FF
:101E80008BF90122D70239462046FEF7B7FF04201E
:101E900003F082F908E06D1CEDB2FA2D04D9FFF7CA
:101EA000B1FF0120BDE8F08131462046FEF7A1FFD9
:101EB0000028F0D1002239462046FEF79FFF00207F
:101EC000F0E700000008004870B501220B4D9402B5
:101ED00021462846FEF792FF0122D60231462846C7
:101EE000FEF78CFF002231462846FEF787FF214689
:101EF0002846BDE870400022FEF780BF000400487D
:101F000070B50A4C012291022046FEF777FF4FF48C
:101F10000065002229462046FEF770FF294620462C
:101F2000BDE870400122FEF769BF000000040048D0
:101F300070B50122064D940221462846FEF75EFF49
:101F400021462846BDE870400022FEF757BF00003A
:101F50000004004810B5FFF763FEBDE81040012003
:101F6000FEF72CBE4218491E521E824202D922EAB6
:101F7000010070478843704738B5054D0C460499F9
:101F80002D6815B100912146A847002038BD0000FA
:101F9000240500202DE9F0411E000D46044604D022
:101FA000F02C05D32148BDE8F0812048401CFAE719
:101FB0001F48204900EB8407386C884202D01B4838
:101FC000001DF0E7082D02D31848401DEBE7FEF78F
:101FD0005DF80246184838641848290700EB840069
:101FE000090E066460B200280EDB00BF00F01F047B
:101FF0004FF0010303FA04F34FEA50144FEA84044C
:1020000004F1E024C4F8003104DB00F1E02080F8A2
:10201000001405E000F00F0000F1E02080F8141D2E
:102020001046FEF73BF80020BDE700000009000263
:1020300000000020F15B0008AD5C0008240F0020C8
:1020400010B5214910200860204821490068086027
:1020500003F04AFE040007D01EA001F0DDFC21467B
:102060001EA001F0D9FC27E003F0DCFD04F0B8FB72
:10207000040004D017A001F0CFFC1FA01AE004F068
:1020800019FC04F0A9F8002817D103F039FE002844
:1020900013D103F037FF040004D00EA001F0BCFC04
:1020A0001AA007E004F0A8F9040007D009A001F085
:1020B000B3FC1BA001F0B0FC204610BD04F0F6FDFF
:1020C000BDE8104003F0CEBD90040020D479000894
:1020D000280500205B4552525D2000006F734D655E
:1020E0006D53797374656D496E6974206572726F92
:1020F000722025640A0000006F735461736B496E8F
:102100006974206572726F720A0000006F735175F6
:10211000657565496E6974206572726F720A000098
:102120006F735377546D72496E6974206572726F64
:10213000720A00004268C1E9000242681160416011
:1021400070474268C1E9000242681160416070470F
:102150004268C1E90002426811604160704742680C
:10216000C1E900024268116041607047D0E9001285
:102170001160D0E900124A6000214160016070479F
:102180000068FFF7D7BF70B505000C464FF00000A0
:102190000CD0002C0AD0284604F0A1F8002805D164
:1021A00021462846BDE8704003F0A6BB70BD03F091
:1021B00033BC70B50C4605000AD04CB104F0C0F831
:1021C000012807D02146284603F044FC012801D00D
:1021D000012070BD002070BD2DE9F84FDFF898A0F8
:1021E0000F460500DAF80040A04603D0502F01D971
:1021F000A80702D0012000F05DB8FDF747FF814637
:10220000EE1918E0A068A542204401D8A64203D8E0
:1022100085420ED286420CD318A001F0FDFBA068C7
:102220003246204400902346294616A001F0F4FBD4
:102230001BE0A046E468002CE4D13946284603F0B0
:102240008BFC90B1B7F5805F03D3284604F0A8F863
:1022500058B1DAF8001061B1C8F80C500020E860FD
:102260004846FDF71BFF0020C5E74846FDF716FF6F
:10227000C0E7CAF80050F1E7200500205B45525244
:102280005D200000706F6F6C205B25702C20307813
:1022900025782920636F6E666C6963742077697492
:1022A0006820706F6F6C205B25702C20307825784B
:1022B000290A000018BCBDE8E08F000038B5050011
:1022C00014D0FDF7E3FE174902460024486888420F
:1022D0000FD11046FDF7E2FE134D144900232A46A4
:1022E00013A00094FFF748FE284638BD0E48401E54
:1022F00038BDD0E900131960D0E900134B6020F815
:10230000064C012100F8081D00F108018482C0E993
:1023100003148160406828601046FDF7BFFE00206E
:1023200038BD0000F0040020031D0002F8C3B2A174
:102330006F735F756E73706563696669635F666905
:102340006C6500002DE9F8431C4F1D4D4FF000084F
:102350000F2801D33C4616E01A4900EB40000968FB
:1023600001EBC004FDF792FE06462078B0B1E068AC
:1023700004F10801884201D1608898B13046FDF728
:102380008DFE0E4C08342946002322460EA0CDF8BF
:102390000080FFF7F1FD2046BDE8F8833046FDF7E9
:1023A0007DFED7E70748001DFFF7CBFE84F80080CD
:1023B0003046FDF773FE0020EEE70000011D00022D
:1023C000F8C3B2A1EC0400206F735F756E73706583
:1023D00063696669635F66696C6500002DE9F843AF
:1023E00000263D4DDFF8F48089460F2804D30023F2
:1023F0002C462A46009666E0394900EB4000096801
:1024000001EBC004FDF742FE0746207848B103F017
:1024100049FC50B13846FDF741FE2F48001DBDE88C
:10242000F8833846FDF73AFEE1E72E4805686088F4
:1024300040B12169A9420BD1401C60803846FDF7AC
:102440002DFE46E0012060802561E888A082F5E746
:10245000B9F1000F0ED02448008888B11E4C23A08B
:10246000641D01F0D9FA23A001F0D6FA3846FDF731
:1024700015FE25E03846FDF711FE1748C01CCEE7D3
:10248000EC612069E988C2888A4201D904F028FAFF
:102490004A46082104F1080004F032FB3846FDF7F3
:1024A000FDFD00F075F92879400612D5FDF7EEFD27
:1024B000A98821F04001A980FDF7F0FD064CA41D7C
:1024C000002322460096414613A0FFF755FD204603
:1024D000A5E70020A3E70000011D0002F8C3B2A198
:1024E000EC040020A0040020800400205B45525230
:1024F0005D2000002121214C4F535F4552524E4F29
:102500005F4D55585F50454E445F494E5F4C4F43B9
:102510004B2121210A0000006F735F756E73706597
:1025200063696669635F66696C6500002DE9F8435D
:102530002549804600EB4800096801EBC004FDF71F
:10254000A5FD0026214DDFF888900746B8F10F0F52
:1025500008D2207830B11F486188026811B1206923
:1025600090420CD03846FDF799FD00232A46494693
:1025700019A00096FFF700FD2846BDE8F883491E24
:102580000904090C618003D03846FDF787FD19E086
:10259000C288A18A8A4201D004F0A2F9E06804F15D
:1025A00008018842F0D00121618028382061C1886B
:1025B000A1820821C66104F0C9FA3846FDF76EFD14
:1025C00000F0E6F80020D8E7EC040020011D00022E
:1025D000F8C3B2A1A00400206F735F756E737065BD
:1025E00063696669635F66696C6500002DE9F047A1
:1025F0000D4608985FEA020900F104018FB206D087
:102600004FF6FB71884205D92648BDE8F08725487A
:102610000930FAE7E5B1D8B1DFF88C8005FB07F1A6
:10262000D8F80000FFF7AFFD060014D0FDF72EFD2F
:102630001E4A01465068904210D10846FDF72EFD13
:102640003146D8F80000FFF7B4FD1648401CDCE71F
:1026500014480A30D9E71348401ED6E7D0E90023D2
:10266000A0F11C041A60D0E900235360E5802781A3
:10267000012326600022A38022826582A281E2815A
:10268000A0F10802526012604060006008304060B3
:1026900000600846FDF702FD61890020C9F80010BE
:1026A000B3E700000306000228050020FC04002018
:1026B00070B504460A2801D3204870BDFDF7E6FC3A
:1026C0001F49054604EB4400096800EBC40001EB18
:1026D00080029088C0B1194C916902F11400E41C89
:1026E000814213D1106A02F11C0188420ED1936A13
:1026F00002F12400834209D1508A138A1844D388F6
:10270000984208D0E41C01E00C4C641D2846FDF7FB
:10271000C5FC204670BD00201468106090800848F9
:10272000001DFFF715FD2846FDF7B8FC05482146BA
:102730000068BDE87040FFF73CBD000005060002E0
:10274000F804002028050020F8B51C4615460E4662
:10275000074603F0BDFC002806D100212B46324677
:102760003846009403F0FCFBF8BD7FB582B01C46F0
:102770000D46064604AA03F0C5FC002806D1032135
:1027800004AB2A463046009403F0EAFB06B070BD65
:1027900010B5FDF77BFC044603F03EFB0A492838E0
:1027A00048600968814202D00848008820B120466C
:1027B000BDE81040FDF772BC2046FDF76FFCBDE898
:1027C0001040FDF76EBC0000A00400208004002033
:1027D0000A464FF6FF7103F0B1BC00002DE9F84343
:1027E0001A4F1B4D4FF00008142801D33C4612E04D
:1027F0001849096801EB0014FDF748FC06462088DB
:10280000A0B1E06804F10801884213D03046FDF71A
:1028100045FC0E4C08342946002322460EA0CDF874
:102820000080FFF7A9FB2046BDE8F8833046FDF79E
:1028300035FCDBE70748001DFFF791FCA4F800809A
:102840003046FDF72BFC0020EEE7000001070002F8
:10285000F8C3B2A1040500206F735F756E737065D5
:1028600063696669635F66696C6500002DE9F8431A
:102870000026324FDFF8C8808946142804D300238D
:102880003C463A46009650E02E49096801EB001498
:10289000FDF7FCFB0546208838B1608848B1401E32
:1028A00060802846FDF7FAFB46E02846FDF7F6FB78
:1028B000E5E7B9F1000F09D003F0F4F948B11F4C76
:1028C00021A0241D01F0A8F821A00BE01B4CE41C62
:1028D00025E02848008840B1184C1BA0641D01F079
:1028E0009BF825A001F098F819E02C484A460821E9
:1028F000076804F10800BC6104F002F92846FDF7FE
:10290000CDFBFFF745FF3879400615D5FDF7BEFB37
:102910000546B888094C20F04000B880A41D284620
:10292000FDF7BCFB00232246009641461CA0FFF7A2
:1029300023FB2046BDE8F8830020FBE701070002E7
:10294000F8C3B2A1040500205B4552525D2000008F
:102950002121214C4F535F4552524E4F5F53454DFD
:102960005F50454E445F494E544552522121210A41
:1029700000000000800400202121214C4F535F45BE
:1029800052524E4F5F53454D5F50454E445F494E46
:102990005F4C4F434B2121210A000000A00400207E
:1029A0006F735F756E73706563696669635F66698F
:1029B0006C6500002DE9F8432149224F142809686D
:1029C00001EB001402D33846BDE8F883FDF75EFB47
:1029D00006462088DFF87080002588B1A0886188CD
:1029E000884215D13046FDF759FB164C0023E41DF3
:1029F00022460095414615A0FFF7BEFA2046E3E7C0
:102A00003046FDF74BFB00233C463A460095F1E784
:102A1000E06804F1080290420BD040F8105C0821F5
:102A2000283804F093F83046FDF738FBFFF7B0FE86
:102A300004E0491C61803046FDF730FB0020C3E70D
:102A40000405002001070002F8C3B2A16F735F758F
:102A50006E73706563696669635F66696C650000C3
:102A600010B504F0A7F8040006D005A000F0D4FFCC
:102A700005A000F0D1FF01E0FDF7E2FA204610BD0D
:102A80005B4552525D2000006F735469636B537451
:102A9000617274206572726F720A000070B504462C
:102AA00000F034F8002829D1174D2068C0EBC00091
:102AB000E96800EB400001EB8004FDF7E7FA064609
:102AC000A08820F0020040F00400A080E18804F11A
:102AD000280003F05DF903F09FF905F12001283883
:102AE0004860EA695AB12A884AB90968814206D021
:102AF0003046FDF7D3FA03F01FFB002070BD3046CF
:102B0000FDF7CCFAF9E70000800400202DE9F05F22
:102B10000D465FEA00084FF0FF3B19D0DDB1286990
:102B2000E0B12968E9B1AA8849481F2A0ED802D124
:102B3000484A91420AD14849484FE86809683A68CA
:102B4000891A491C88420FD941481D3000F08CB8C1
:102B50003F48001DFAE73E48801EF7E73C48801CCE
:102B6000F4E73B48401CF1E710B94FF43470E860DB
:102B70000821FFF7F7F9E860B0F5987F02D23448F2
:102B8000C01CE3E7FDF782FA06464FF00009344C1B
:102B9000BA4611E0A1F128070846FFF7E7FA3048E6
:102BA00007F128010838FFF7C5FAF968DAF80000DC
:102BB000FFF7FFFAC7F80C906168A142EAD12849F3
:102BC00008394868884202D1214C0E343AE0A0F11D
:102BD0002804FFF7CBFA3046FDF760FA2769082290
:102BE000E968DAF80000FFF7E2FA060020D00246B2
:102BF0003846E96804F062F82060A868E660206260
:102C0000E868C4F81890C4F81C900221A060A18064
:102C1000A988E1802968C4F83CB0C4F84890616193
:102C20002969C4F8509061620020C8F800708DE7EF
:102C3000FDF72CFA06460A4804F128010838FFF788
:102C400079FA084C3046FDF729FA20467EE7000065
:102C500003020002615C0008D8790008D4790008FA
:102C6000B80400200002000330BCBDE8C09F000093
:102C700070B5054603F016F808B1154870BD154843
:102C8000008808B1144870BDEDB1FDF7FFF9114C93
:102C9000064620342068283003F05EF820688188DA
:102CA00021F0040181802946206803F03FFD20685F
:102CB000818841F0200181803046FDF7EFF9FFF770
:102CC00067FD002070BDBDE8704000F0BFB8000097
:102CD0000D020003800400200E0200022DE9F047DF
:102CE000494D07464FF0FF3A6869874202D147488D
:102CF000BDE8F087A869874202D144480D30F7E764
:102D00002869874202D341480D38F1E7FDF7BEF943
:102D10008046C7EBC700E96800EB400001EB800488
:102D2000A688F00706D0394C40460A3CFDF7B6F9B4
:102D30002046DDE7F0064FF0000903D5288808B1EA
:102D4000A5F80090700708D504F1280003F004F8F6
:102D5000A08820F00400A08007E042F208000642AC
:102D600003D004F12800FFF701FA16F0600F02D03B
:102D7000204603F065FFA08820F0020040F001002B
:102D8000A080C4F83CA0C4F8489003F045F81E4E5B
:102D90004FF0010A2036283870602079C0061FD510
:102DA00004F1280106F11800FFF7EAF92869E9683B
:102DB000C0EBC00000EB400001EB80003060076119
:102DC0003168A08888803068E168C160616A4162CA
:102DD000A4F804A04046FDF761F903F0ADF911E055
:102DE0000948A4F804A004F128013030FFF7A2F943
:102DF0000748E1680068FFF7DCF94046C4F80C902A
:102E0000FDF74CF9002073E7800400201402000253
:102E1000D47900080C4910B50A69904201D300200A
:102E200010BDC0EBC000C96800EB400001EB80049E
:102E3000FDF72CF92179C90702D0FDF72FF9EEE74C
:102E4000FDF72CF9606A10BD8004002070B5194CA4
:102E5000A4F12002206812690169914201D3164849
:102E600070BD0079400701D4002070BDFDF70EF958
:102E700005462068C08802F0BDFF012813D92068EC
:102E80002830FFF773F92068818841F004018180C0
:102E90002068C188283002F07BFF2846FDF7FEF845
:102EA000FFF776FCE0E72846FDF7F8F8024809301E
:102EB00070BD0000A0040020070200020149D1E912
:102EC00000017047D80400202DE9F043444887B042
:102ED000C16C41F00401C164C16C01F004010591B1
:102EE000C16C41F08001C164C16C01F080010591A9
:102EF000C16C41F00101C164C16C01F00101059197
:102F0000C16C41F00201C164C06C364F00F0020098
:102F10004FF400540590002221463846FDF76EFF1D
:102F20004FF09048012220214046FDF767FFDFF86F
:102F3000B8904FF44266002231464846FDF75EFFE6
:102F40000125CDE9004500240294694638460394E2
:102F5000FDF788FE20200090CDE9015469464046E7
:102F60000394FDF77FFE0F2000902048CDE9010576
:102F700069463846FDF776FE4020CDE900046946F3
:102F800040460294FDF76EFE0096CDE90154694675
:102F900048460394FDF766FE002211460620FDF721
:102FA000A3FF0620FDF792FF002211460720FDF740
:102FB0009BFF0720FDF78AFF002211460820FDF73E
:102FC00093FF0820FDF782FF002211460920FDF73C
:102FD0008BFF0920FDF77AFF07B0BDE8F083000002
:102FE00000100240000800480004004800002110C2
:102FF0000E4810B50C4901604FF4E13141600021E9
:1030000081600C22C160C0E904128161C16101626A
:103010004162FEF7ADFC002805D0BDE81040452117
:1030200003A000F0F7BC10BD003801403C070020B1
:103030002E2E2F5372632F75736172742E630000EE
:1030400010B5FDF7DCF808B1002010BD4FF0FF30DF
:1030500010BD70B50024002104F1B00000F017F994
:103060000021084600F013F90021102000F00FF9AC
:1030700000250121002000F00AF96D1CEDB2802D21
:10308000F7D3641CE4B2082CE5D370BD10B5C8209A
:10309000FDF7DAFD0021AE2000F0F9F80021402014
:1030A00000F0F5F80021B02000F0F1F80021C82070
:1030B00000F0EDF80021812000F0E9F80021FF2068
:1030C00000F0E5F80021A12000F0E1F80021A620A1
:1030D00000F0DDF80021A82000F0D9F800211F2021
:1030E00000F0D5F80021D32000F0D1F800210846E7
:1030F00000F0CDF80021D52000F0C9F80021F02023
:1031000000F0C5F80021D92000F0C1F800212220EC
:1031100000F0BDF80021DA2000F0B9F8002102200B
:1031200000F0B5F80021DB2000F0B1F800214920C3
:1031300000F0ADF800218D2000F0A9F80021142046
:1031400000F0A5F80021AF2000F0A1F8BDE8104084
:10315000FFF77FBF10B50A460446002102F1B00018
:1031600000F095F8102040EA1410002100F08FF8CC
:1031700004F00F00BDE81040002100F088B8000006
:103180002DE9F04115460E460746FFF7E3FF0F48CD
:10319000002400EB85150121285D00F078F8641CFF
:1031A000E4B2102CF7D3761CF1B23846FFF7D2FF09
:1031B00000242819012190F8200000F068F8641C10
:1031C000E4B2102CF5D3BDE8F081000038050020F2
:1031D0002DE9F041203A00240D468046D6B27F28E2
:1031E00003D900208D1C8046EDB2102B294610D04B
:1031F000FFF7B0FF164906EB460001EB4005012141
:10320000285D00F044F8641CE4B2062CF7D3BDE856
:10321000F081FFF79FFF0F4F04EB06100121385C90
:1032200000F035F8641CE4B2082CF5D36D1CE9B24B
:103230004046FFF78FFF002404EB061038440121BD
:10324000007A00F024F8641CE4B2082CF4D3DEE722
:10325000547000087C7200082DE9F041984617462A
:103260000E46044600250DE0434631462046FFF752
:10327000AFFF0834E4B2782C02D90024B61CF6B2B1
:103280006D1CEDB27A5D002AEED1BDE8F081C0B2CE
:1032900009B100F0A8BB00F08FBB00002DE9F041A0
:1032A000444C05468846E0680026810728680DD012
:1032B000E16801F00301814216D1A8B1E0686968B4
:1032C000C0F30210401C88420ED120E0012804D037
:1032D000022805D0032807D108E02168890701E00A
:1032E00021684905002907DB01265FE02168890381
:1032F00002D421684903F5E7E1686A686FF00F03BB
:1033000021F0730103EB021211430143E1602068D5
:1033100020F080602060FDF776FD074605E000BFE5
:10332000FDF771FDC01B022837D820680001F7D4D3
:10333000B8F1000F18D0B8F1010F1DD0287D4FF063
:103340007E41400801EB4060A96840EA0120216904
:10335000194A114008432061206840F080602060D5
:10336000FDF751FD07461AE0A868297B000240EAF4
:10337000C1602169114AECE7288A1149400801EB34
:103380004050A96840EA012021690E4AE1E700BFE8
:10339000FDF739FDC01B022801D9032606E020688D
:1033A0000001F5D52069A969084320613046BDE8D0
:1033B000F081000000100240FF80FFF9FF80FF074E
:1033C0000000E0FFFF809FFFF8B51C4D064600247B
:1033D000A86DC00002D5FDF7EBFD0DE0A86D40F033
:1033E0008050A865A86D00F080500090FDF7E0FDCA
:1033F000A96D21F08051A965B0F5007F04D0802E21
:1034000007D94FF003040AE0802E08D9A02E01D876
:1034100004E001D1022402E0702E00D1012408480A
:10342000016821F0070121430160006800F00700F6
:10343000A04201D00120F8BD0020F8BD00100240DC
:103440000020024070B5FEF7B3FC4720FEF774FC85
:10345000FEF704FD0028FBD100240B4D05E004D14C
:103460000020FEF72FFCE87003E00120FEF72AFCA5
:103470002855641CE4B2032CF1D3FEF7C3FCBDE86D
:1034800070400520FFF7F4BB3005002010B5012087
:10349000FDF794FBBDE810401020FDF78FBB000046
:1034A000254810B5016EAEB041F001010166016E14
:1034B00001F001012D91816D41F080518165806D98
:1034C000012100F080502D900804CDE90010022069
:1034D00003240A90CDE90B4110210D910721CDE97C
:1034E0000E1010906846FDF7D5FF00B1FEE70F20E3
:1034F000CDE9280400242A942B94042128A82C9494
:10350000FDF7BCFE00B1FEE744F247001B941190AA
:103510004FF04050259019941A941D9411A8FDF76E
:103520004FFD00B1FEE74FF40070FDF70FFD0028DE
:1035300000D0FEE72EB010BD001002400D4801681B
:1035400041F4700101600C48016841F00101016023
:10355000002181600268094B1A4002608214C26037
:10356000026822F48022026081610249C00380392E
:103570000860704788ED00E000100240FFFFF6EAA7
:1035800090F82410C90706D001684A68836A22F4BB
:1035900000321A434A6090F82410890706D5016862
:1035A0004A68C36A22F480321A434A6090F82410B1
:1035B000490706D501684A68036B22F480221A4342
:1035C0004A6090F82410090706D501684A68436BE1
:1035D00022F400421A434A6090F82410C90606D526
:1035E00001688A68836B22F480521A438A6090F8DB
:1035F0002410890606D501688A68C36B22F400523C
:103600001A438A6090F82410490611D501684A6867
:10361000036C22F480121A434A60016CB1F5801FDA
:1036200006D101684A68436C22F4C0021A434A601A
:1036300090F82410090606D501684A68806C22F4C7
:10364000002202434A607047F8B5002604464667E8
:10365000FDF7D9FB0546206800686FF07E4700073C
:1036600008D52B4600224FF400112046009700F0A9
:1036700043F960B92068006840070AD52B4600224C
:103680004FF480012046009700F036F908B103207E
:10369000F8BD202084F8710084F8720084F870600E
:1036A0000020F8BD2DE9F0410446016880682369D7
:1036B000E669184363691025002733431843844A99
:1036C0000B68844E334003430B6020684168E36815
:1036D00021F44051194341602168A069914201D011
:1036E000236A18438B6823F4306303438B607A4B5F
:1036F00021687A4899420DD1D0F8880010F0030073
:1037000006D0012839D0022835D0032838D136E038
:10371000012535E0724B99420BD1D0F8880010F0AA
:103720000C0026D0042828D0082824D00C2827D123
:1037300025E06C4B99420BD1D0F8880010F0300096
:1037400017D0102819D0202815D0302818D116E00D
:10375000914215D1D0F8880010F4406009D0B0F53E
:10376000806F0AD0B0F5006F05D0B0F5406F07D17B
:1037700005E0002504E0022502E0042500E008251C
:10378000594B00264FF4004091423DD135B1022DF6
:1037900007D0042D07D0082D10D107E0FDF7F8FD64
:1037A00003E0184602E0FDF713FEA8B3626802EBDF
:1037B0004201814202D8B0EB023F01D9012774E0F7
:1037C000DFF828815DB1022D0CD0042D13D0082D17
:1037D000F4D150082905401846F1000105E0FDF735
:1037E000D7FD0AE050084249F5E70023FCF7A9FCA1
:1037F000A0F5407155E0FDF7EBFD6268010E030294
:10380000500818187141F0E7E1694FF6EF788142EE
:103810002ED1092DD2D200E047E0DFE805F00609FD
:103820001F05220505052500C8E7FDF7B1FD01E0EC
:10383000FDF7BEFD4100606801EB5001B1FBF0F007
:1038400080B2A0F110014145B8D84FF6F0710140A7
:10385000C0F3420001432068C16026E0254960684A
:10386000EAE7FDF7B5FDE5E74FF480316068E3E78F
:10387000092DA3D2DFE805F006091E05220505057E
:1038800025009BE7FDF784FD01E0FDF791FD014672
:10389000606801EB500100BFB1FBF0F080B2A0F115
:1038A000100141458AD82168C86026663846666698
:1038B000BDE8F081606803EB5001EDE7FDF788FD9E
:1038C000E5E7616800EB5100B0FBF1F0E6E70000CE
:1038D00000800040F369FFEF003801400010024013
:1038E00000440040004800400024F400FFFC0F00AA
:1038F000000024F40048E8012DE9F04198461746FD
:103900000E460446069D1DE0681C1BD02DB1FDF738
:103910007AFAA0EB0800A84214D92068016821F4C3
:10392000D07101602068816821F001018160202050
:1039300084F8710084F87200002084F8700003207D
:10394000BDE8F0812068C06936EA000004D000209C
:10395000B842D9D00020F3E70120F9E72DE9F04182
:10396000144F04464FF48066002231463846FDF776
:1039700045FA00254FF4006804F08000802816D036
:10398000002241463846FDF739FA6006040E01224E
:1039900031463846FDF732FA002231463846FDF707
:1039A0002DFA6D1CEDB2082DE6D3BDE8F0810122A1
:1039B000E7E700000004004810B50446FEF784FA6B
:1039C0007820FFF7CBFFFEF7B3FA0020FFF7C6FF22
:1039D000FEF7AEFA2046FFF7C1FFFEF7A9FABDE8F1
:1039E0001040FEF78DBA10B50446FEF76DFA782048
:1039F000FFF7B4FFFEF79CFA4020FFF7AFFFFEF79A
:103A000097FA2046FFF7AAFFFEF792FABDE81040AA
:103A1000FEF776BAFEE700000FB4054B10B503A918
:103A2000044A029800F054F810BC5DF814FB000042
:103A3000DD510008180700200FB41CB50246002015
:103A400007AC00290BD0491ECDE90021054B6A4681
:103A50002146069800F03CF8009A002111701CBC29
:103A60005DF814FB393F00080FB4084B10B504A9EA
:103A700002AA039800F02CF8044602A9002000F0E6
:103A800066FA204610BC5DF814FB00004F3F0008AA
:103A90000907090E002804DB00F1E02080F800147B
:103AA000704700F00F0000F1E02080F8141D70470F
:103AB00002E008C8121F08C1002AFAD170477047F7
:103AC000002001E001C1121F002AFBD17047000055
:103AD0002DE9FF4F8DB00F460546002606E025284C
:103AE0000BD0DDE90F1290476D1C761C287800285A
:103AF000F5D111B0304600F0F3B90024A246A1463A
:103B00000122EC4900E0044315F8013F203B02FA92
:103B100003F00842F7D128782A2810D06FF02F023E
:103B20002878A0F13001092914D80AEB8A0102EBA8
:103B3000410144F0020400EB010A6D1CF0E701CFE3
:103B40005FEA000A03D544F40054CAF1000A44F0C5
:103B500002046D1C28782E2817D115F8010F44F0A7
:103B600004042A280ED06FF02F022878A0F130012B
:103B700009290AD809EB890102EB410100EB01098F
:103B80006D1CF2E757F8049B6D1C28786C280FD049
:103B900006DC4C2817D068280DD06A2814D104E020
:103BA000742810D07A280FD10DE044F400140AE0F4
:103BB00044F4801401E044F440146978814202D155
:103BC00004F580146D1C6D1C2A786E2A1FD00CDC45
:103BD000632A31D004DC002A8BD0582A11D1A3E00B
:103BE000642A68D0692A0CD165E0732A2ED004DCDF
:103BF0006F2A73D0702A04D19BE0752A6FD0782A7F
:103C00006ED01046DDE90F129047761C50E1C4F3E8
:103C10000250022806D0032809D0042801CF09D079
:103C2000066045E101CFF117C0E9006140E101CF35
:103C300006803DE106703BE117F8040B8DF80000AB
:103C400000208DF80100EB46012003E057F804BB8B
:103C50004FF0FF3061074FF0000102D40DE008F192
:103C60000101884649450FDA8045F8DB1BF808104A
:103C70000029F4D108E008F1010188468142FADB0D
:103C80001BF808100029F6D1DDE90F23AAEB080084
:103C90008146214600F039F9304400EB080604E083
:103CA000DDE90F121BF8010B9047B8F10108F7D2BC
:103CB00021464846F7E00A21C4F302534FF0000BB7
:103CC0000891022B04D001CFC117032B09D00AE0C1
:103CD000FF1D27F00707F7E8020108E032E01FE0C8
:103CE00020E000B2C117042B01D140B2C117031E5E
:103CF00071F1000307DA4FF0000CD0EB0C006CEB15
:103D000001012D2302E0230504D52B238DF8243057
:103D1000012303E0E30701D02023F7E7984658E0AA
:103D20000A2110E010210EE010204FF0000B089047
:103D30000CE010214FF0000B44F004044FF0080990
:103D4000089103E008214FF0000B0891C4F30253DF
:103D5000022B04D001CF0021032B06D006E0FF1D6B
:103D600027F00707F7E8020103E080B2042B00D137
:103D7000C0B24FF0000823072BD5702A07D0DDF81A
:103D800020C08CF0100C5CEA0B0C05D00EE0402338
:103D90008DF82430012308E050EA010306D03023D7
:103DA0008DF824308DF8252002239846DDF820C0B8
:103DB0008CF0080C5CEA0B0C0BD150EA010301D12A
:103DC000630706D530238DF824304FF00108A9F1A0
:103DD0000109582A04D038A20B9208AA0A920BE0D3
:103DE0003AA2F9E75B46089AFCF7ABF90B9B9B5CA0
:103DF0000A9A521E0A92137050EA0102F2D10A98EE
:103E0000ADEB000000F1200B600702D524F48034F4
:103E100001E04FF00109D94502DDA9EB0B0000E0FC
:103E2000002000EB0B0141440890AAEB010AE003DB
:103E300006D4DDE90F232146504600F066F806441B
:103E40004FF0000908E009A911F80900DDE90F1297
:103E5000904709F10109761CC145F4DBE0030CD55C
:103E6000DDE90F232146504600F04FF8064404E0F8
:103E7000DDE90F1230209047761C0899481E089003
:103E80000029F5DC08E00A980A990078491C0A9193
:103E9000DDE90F129047761CBBF10001ABF1010B7D
:103EA000F1DC21465046DDE90F2300F01CF8064402
:103EB0006D1C1BE6092801003031323334353637AA
:103EC0003839616263646566000000003031323366
:103ED0003435363738394142434445460000000006
:103EE00030BCBDE8C08F2DE9F041044600251E46D8
:103EF0001746880404D405E039462020B0476D1CDD
:103F0000641EF9D52846BDE8F0812DE9F04104464C
:103F100000251E469046C80301D5302700E0202723
:103F2000880404D505E041463846B0476D1C641E40
:103F3000F9D52846BDE8F0814A68002A06D00A680B
:103F4000531C0B6010704868401E486070470A6838
:103F5000531C0B6010707047F0B587B00E460746D3
:103F60001C460C9D142168460592FCF73DF905A8F6
:103F70000090012001906A4631463846CDE903455C
:103F800000F002F807B0F0BD2DE9F0478CB0140046
:103F90008A4606464FF0FF3711D086B1202104A88B
:103FA000FCF722F9142221460DF1100805A8FCF7B0
:103FB00002F9E06838B1206928B1056804E03846A4
:103FC0000CB0BDE8F0873D4600F0FAF80146D4E9B0
:103FD0000302CDE90202CDE900654FF48F73224A56
:103FE00022A0FFF719FD2B4DB9463946A869FEF707
:103FF000F5F949466869FEF7F1F904A800F046FAB8
:1040000001225146304600F00FFE6869FEF78EFA35
:10401000E96B2869FEF72AFC074649466869FEF7FE
:10402000DDF904A800F042FA6869FEF77FFAA86992
:10403000FEF77CFA022002F061FF67B100F0C0F8E1
:10404000CDE90076014640F23313074A1248FFF7E4
:10405000E3FC4846B4E7142208F104012046FCF7CB
:10406000AAF80020ACE700009B7800085B256C757F
:104070005D5B25733A25645D5B495D636D643A253C
:1040800073206C656E2025642C2025702C25640A15
:1040900000000000B80600204079000870B5002438
:1040A0001A4D4FF47A7606E0012002F027FF3046E1
:1040B000FEF7DEFD641C2868FEF7ACFE08B10A2C92
:1040C000F2DB2868FEF7A6FE60B12868FEF706FE60
:1040D00040B100F075F8014640F242330C4A0DA0A1
:1040E000FFF79AFC00F0C0FD084800F02BFB40B140
:1040F00000F066F8014640F24933054A10A0FFF788
:104100008BFCBDE8704000F077B90000B8060020D5
:10411000E57800085B256C755D5B25733A25645D69
:104120005B495D61745F726563765F7461736B2078
:1041300064656C657465206661696C6564210A005C
:104140005B256C755D5B25733A25645D5B495D613C
:10415000745F7374727563745F6465696E697420EB
:104160006661696C6564210A00000000014602482E
:104170000068FEF71EB800002805002070B50F4C3F
:104180004FF0FF35206C78B129466069FEF726F9BB
:10419000A06B78B1C06968B100F012F8A16B8969B1
:1041A000814203D8642505E0284670BD0D1A4FF4FE
:1041B0007A7045436069FEF7B9F9F5E7B806002063
:1041C00010B5FEF77BFE4FF47A71B0FBF1F010BD35
:1041D0000C4910B50C6B4A6B0B4900200823C968C9
:1041E000012C06D007E000BF03EB4014145914B1B2
:1041F000401C8142F8D8814203D903EB40130121CE
:10420000D15010BDB8060020300400202DE9F04147
:10421000184F0E468046BC6B002C29D0E2690AB1CB
:10422000904718B1606838B100251EE02046BDE80F
:10423000F041002100F03ABA3869BDE8F041FEF7DC
:10424000B9BB606850F8251071B14046FBF7D7FF45
:1042500050B1206930B1636923B11EB13246414685
:1042600002F0F0FDE560E7E76D1CA068A842E8D821
:10427000BDE8F081B80600201CB5FFF7A1FF01469C
:10428000234840F2123302690068CDE90002214A56
:1042900021A0FFF7C1FBC820FEF7EAFC2C4800F084
:1042A00015FB38B1FFF78CFF014640F21733194A6E
:1042B00028A028E000F0A0F800F0EAFC48B1FFF7E1
:1042C0007FFF014640F21E33124A2DA0FFF7A4FBE8
:1042D0000DE000F00FFE78B1FFF772FF01464FF4DA
:1042E00049730C4A30A0FFF797FB00F0BDFCBDE816
:1042F0001C40174800F026BAFFF762FF0146054A46
:1043000040F22A3333A002B0BDE81040FFF784BB6F
:10431000300400206C7800085B256C755D5B2573AC
:104320003A25645D5B495D436F6E6669672025735E
:104330002862756666657220746F74616C2069739B
:1043400020256C75292E2E2E2E2E2E0A0A000000F6
:10435000B80600205B256C755D5B25733A25645DAE
:104360005B495D70726570617265204154207374A1
:1043700072756374206661696C6564210A000000CF
:104380005B256C755D5B25733A25645D5B495D61FA
:10439000745F75736172745F696E697420666169B8
:1043A0006C6564210A0000005B256C755D5B2573FC
:1043B0003A25645D5B495D6372656174655F617434
:1043C0005F726563765F7461736B206661696C65AB
:1043D00064210A005B256C755D5B25733A25645D7D
:1043E0005B495D436F6E66696720636F6D706C65D6
:1043F000746521210A0A000004490020C1F82C013B
:104400004FF496710148FBF7EFBE0000241B00201B
:104410003EB51A480168C8691A4CC0438506184B56
:1044200020694FF0000210D4898C1B6A195420694E
:10443000401C2061A169884201D1012121701249EB
:104440000969814200D822613EBDCD69ED43ED0688
:10445000FAD410250D626061A169CDE90010A06158
:104460000292986800230C226946FEF77EF9002824
:10447000EAD0E068401CE0603EBD00002C0800204F
:10448000B80600201404002030040020064A00234F
:10449000916B036011B99063704711460A68002A56
:1044A000FBD1086070470000B8060020084A916BF5
:1044B000884202D10868906370470A6804E082422B
:1044C00002D1006808607047002AF8D170470000E8
:1044D000B806002070B50546846B06E02068A86326
:1044E000E06910B12046FFF741FE002CF6D170BD07
:1044F00070B50546014605480068FDF744FE040016
:1045000002D02946FBF770FE204670BD280500202A
:104510002DE9F0411D461746060007D035B10F487A
:10452000D0F82C21052A01D0272903DB4FF0FF30DA
:10453000BDE8F081C2EB0213521CC0F82C2100EB45
:1045400083040A4631462046FBF735FE3046FBF72A
:1045500068FEA062C4E90C570020E9E7241B002094
:10456000F0B5314C87B00C20A66A4FF0FF370590AC
:10457000FFF704FEA568034605AA02A92846FEF730
:10458000E3F80028F4D10498012817D0394660696F
:10459000FDF724FF00F09EF86069FDF7C7FF206C6F
:1045A00000B180470498A0B1FFF70AFE014640F22F
:1045B0000D231E4A1EA0FFF72FFAD9E7FFF700FED2
:1045C00001464FF4FF73194A23A0FFF725FA07B0FD
:1045D000F0BD2A4801693046FBF706FE02A93046C5
:1045E00002F0AEFB0500C3D0FFF7EAFDCDE90056AF
:1045F00001464FF406730D4A21A0FFF70DFA294634
:10460000304600F00DFC0028B2DC39466069FDF749
:10461000E5FE00F05FF829463046FFF7F7FD6069D8
:10462000FDF784FFA4E70000B8060020B878000872
:104630005B256C755D5B25733A25645D5B495D6147
:10464000742072656376206D73672073656E7420C5
:10465000646F6E650A0000005B256C755D5B2573F9
:104660003A25645D5B495D617420726563762074F0
:1046700061736B20717569740A00000030040020BA
:104680005B256C755D5B25733A25645D5B445D72EB
:10469000656376206C656E203D20256C7520627503
:1046A00066203D202573200A0000000010B5084C4C
:1046B000A26B824202D10168A16302E009B10268E3
:1046C0000A60FFF753FDA069BDE81040FDF72EBF5B
:1046D000B806002070B50F480025846B16E02668E8
:1046E000E06988B1FFF76CFDA16988420CD3FFF740
:1046F00067FD0146B623084A08A0FFF78DF9294651
:104700002046FFF7D3FF00E025463446002CE6D1D3
:1047100070BD0000B8060020747800085B256C7539
:104720005D5B25733A25645D5B495D676574207246
:1047300065637620646174612074696D656F75745A
:104740000A00000070B504004FF000064FF0FF357E
:104750005CD029466069FDF741FE2046FFF7BAFEAE
:104760006069FDF7E3FE6068FEF738F848B1FFF7CF
:1047700027FD01464FF435732A4A2BA0FFF74CF969
:104780002E466069FDF7DEFD48B1FFF719FD0146D1
:1047900040F2DA23234A2FA0FFF73EF92E46206984
:1047A000FEF71CF848B1FFF70BFD01464FF43873D4
:1047B0001C4A33A0FFF730F92E46207F002518B1A0
:1047C000A069FDF7BFFD2577207B18B1A068FDF734
:1047D0006FFF2573206A10B1FFF7C8FC2562606A7D
:1047E00010B1FFF7C3FC6562A06A10B1FFF7BEFC11
:1047F000A562606B10B1FFF7B9FC6563A563256323
:104800004FF6FF70E5632060304670BDFFF7D8FCBF
:10481000014640F2CA23034A24A0FFF7FDF82846C8
:1048200070BD0000D47800085B256C755D5B257356
:104830003A25645D5B495D64656C657465206174EF
:104840002E726563765F73656D206661696C656461
:10485000210A00005B256C755D5B25733A25645D5C
:104860005B495D64656C6574652061742E636D647D
:104870005F6D7578206661696C6564210A000000CF
:104880005B256C755D5B25733A25645D5B495D64F2
:10489000656C6574652061742E726573705F7365F5
:1048A0006D206661696C6564210A00005B256C758A
:1048B0005D5B25733A25645D5B495D696E76616970
:1048C0006C6420706172616D210A0000F8B504000B
:1048D0004FF0FF3713D00C200090002304F10802A2
:1048E000202165A0FDF782FE88B1FFF769FC014633
:1048F00040F25323634A64A0FFF78EF8BAE0FFF753
:104900005FFC01464FF413735E4A69A0F4E701258A
:104910002573211D0020FDF75BFF002648B1FFF73E
:104920004FFC01464FF41773564A69A0FFF774F81D
:1049300094E004F11400FDF7C1FC28B1FFF740FC3E
:10494000014640F2632309E004F11800FDF7B6FCCC
:1049500048B1FFF735FC014640F26A23494A67A097
:10496000FFF75AF877E0257704F110010020FDF7F2
:104970002FFF48B1FFF724FC014640F27223414A61
:1049800068A0FFF749F863E0704D2869FFF7B0FDB4
:104990002062E8B12869FFF7ABFD606210B32869B7
:1049A000FFF7A6FDA06238B32869FFF7A1FDE0621A
:1049B00000282BD0E8684001FFF79AFD60630028CB
:1049C0002ED0A663E8692063286AE0630020F8BD62
:1049D000FFF7F6FB014640F279232A4A5CA0FFF775
:1049E0001BF832E0FFF7ECFB01464FF42273254A37
:1049F00061A0FFF711F825E0FFF7E2FB014640F266
:104A00008F23204A66A0FFF707F818E0FFF7D8FBCE
:104A1000014640F295231B4A6BA0FEF7FDFF0BE019
:104A2000FFF7CEFB01464FF42773164A71A0FEF73D
:104A3000F3FFA06AFFF79AFBE06AFFF797FB606A53
:104A4000FFF794FB206AFFF791FB2069FDF7C6FE94
:104A50006069FDF777FC6068FDF7C0FE207F18B144
:104A6000A069FDF76FFC2677207B18B1A068FDF7E1
:104A70001FFE26733846F8BD7265637651756575FD
:104A800065000000C57800085B256C755D5B2573CB
:104A90003A25645D5B495D696E6974207265637671
:104AA0005175657565206661696C6564210A000051
:104AB0005B256C755D5B25733A25645D5B495D69BB
:104AC0006E7661696C6420706172616D210A00000C
:104AD0005B256C755D5B25733A25645D5B495D699B
:104AE0006E69742061745F726563765F73656D20B3
:104AF0006661696C6564210A000000005B256C75C5
:104B00005D5B25733A25645D5B495D696E69742060
:104B1000636D645F6D7578206661696C6564210AF8
:104B2000000000005B256C755D5B25733A25645DB4
:104B30005B495D696E697420726573705F73656D42
:104B4000206661696C6564210A0000003004002061
:104B50005B256C755D5B25733A25645D5B495D6D16
:104B6000616C6C6F6320726563765F627566206648
:104B700061696C6564210A005B256C755D5B25735A
:104B80003A25645D5B495D6D616C6C6F6320636D9C
:104B90006472657370206661696C6564210A000047
:104BA0005B256C755D5B25733A25645D5B495D6DC6
:104BB000616C6C6F632075736572646174612066EB
:104BC00061696C6564210A005B256C755D5B25730A
:104BD0003A25645D5B495D6D616C6C6F6320736148
:104BE00076656464617461206661696C6564210A3C
:104BF000000000005B256C755D5B25733A25645DE4
:104C00005B495D6D616C6C6F6320666F72206174CF
:104C1000206C696E6B6964206172726179206661D3
:104C2000696C6564210A00002DE9F04116460C4CC0
:104C30008AB24FF6FF7701463B460A48A569FCF762
:104C400017FF012E0AD1A069FBF7EBFA3B46294674
:104C5000BDE8F04182B20348FCF70ABFBDE8F0812D
:104C6000300400202C080020084801680A6822F05F
:104C700001020A6001680A6822F010020A600068F6
:104C8000016821F020010160704700002C0800201D
:104C9000F8B521481F4C214D4168012904D0022953
:104CA00006D003290CD107E01D496960252106E0E3
:104CB0001C496960262102E01B4969602721A9601F
:104CC0006968216080680026C4E90106E6600C205E
:104CD0002661C4E905062046FCF74AFE18B17D218D
:104CE00012A0FEF797FE216840200862002200967D
:104CF000124B1146A868FDF74DF92068016841F094
:104D0000100101602068016841F02001016000206D
:104D1000F8BD00002C0800203004002014040020FE
:104D20000038014000440040004800402E2E5C53F3
:104D300072635C61745F68616C2E630011440008EB
:104D40002DE9F0438BB00E460746984691464FF04A
:104D5000FF35202101A8FBF747FA012003902CA082
:104D600009902C4C09A802902946A069FDF736FB52
:104D700029466069FDF732FB01A8FFF787FB38463B
:104D8000FBF74FFA014601223846FFF74DFF6069F5
:104D9000FDF7CCFBC8212069FDF768FD2946606955
:104DA000FDF71CFB01A80996FFF780FB01A8FFF7A0
:104DB0006DFB002241464846FFF736FF6069FDF76C
:104DC000B5FBE16B2069FDF751FD06462946606998
:104DD000FDF704FB01A8FFF769FB6069FDF7A6FB7F
:104DE000A069FDF7A3FB022002F088F86EB1FFF77F
:104DF000E7F9014640F27113074A08480096FEF7AA
:104E00000BFE28460BB0BDE8F0834046FAE70000F1
:104E10003E000000B8060020AF7800089079000836
:104E20002DE9F0410E4607460025104C0AE000BF70
:104E3000C5EB051004EB800138460B6B8A6A984776
:104E400038B16D1CD4F82C01A842F1DC0020BDE87B
:104E5000F081C5EB051004EB8000436B1BB1806B48
:104E60003246394698473046F1E70000241B0020BF
:104E700000B587B00020ADF8040006A004900B48F0
:104E800000904FF40060039069460948FDF706FE64
:104E900007B000BD646174615F636F6C6C656374BF
:104EA000696F6E5F7461736B00000000314F000822
:104EB0000404002000B587B00120ADF8040006A06E
:104EC00004900A4800904FF48060039069460848B7
:104ED000FDF7E4FD07B000BD646174615F72657049
:104EE0006F72745F7461736B00000000D54F00082F
:104EF0000404002000B587B00020ADF8040006A02F
:104F00000490094800904FF4805003906946074888
:104F1000FDF7C4FD07B000BD61745F726563765F25
:104F20007461736B0000000061450008B806002042
:104F300070B501F0B1FFFDF70DF84FF47A750CA0D4
:104F4000FEF76AFDFBF75AFEBDEEC00A10EE100A2E
:104F500004B221460FA0FEF75FFD22461BA11C48AC
:104F6000FEF782FD2846FDF783FE0028E7D070BDDE
:104F70005468697320697320646174615F636F6C46
:104F80006C656374696F6E5F7461736B20210D0AC9
:104F9000000000000D0A2A2A2A2A2A2A2A2A2A2A56
:104FA0002A2A2A2A2A2A2A2A2A2A2A2A2A2A2A2A61
:104FB0002A2A2A2A4248313735302056616C7565D5
:104FC000206973202025640D0A0000002535640047
:104FD0000804002010B51EA0FEF71EFD2AA0FEF753
:104FE0001BFD32A0FEF718FD00223FA140A000F0FB
:104FF00001F917A0FEF710FD41A0FEF70DFD2BA053
:10500000FEF70AFD484B494A062149A000F03EF947
:1050100040F6B830FDF72CFE0DA0FEF7FDFC46A0D3
:10502000FEF7FAFC21A0FEF7F7FC4FF47A74052195
:105030004C4800F03DF9002801DB4BA000E050A0F7
:10504000FEF7EAFC2046FDF713FE0028EFD010BD66
:105050000D0A3D3D3D3D3D3D3D3D3D3D3D3D3D3DE3
:105060003D3D3D3D3D3D3D3D3D3D3D3D3D3D3D3D70
:105070003D3D3D3D3D3D3D3D3D3D3D3D3D3D3D3D60
:105080003D3D3D3D3D3D3D000D0A53544550313AB7
:1050900020496E6974204E42204D6F64756C6528FE
:1050A000204E4220496E6974202900000D0A3D3DC2
:1050B0003D3D3D3D3D3D3D3D3D3D3D3D3D3D3D3D20
:1050C0003D3D3D3D3D3D3D3D3D3D3D3D3D3D3D3D10
:1050D0003D3D3D3D3D3D3D3D3D3D3D3D3D3D3D3D00
:1050E0003D3D3D0D0A00000035363833000000001C
:1050F0003133392E3135392E3134302E33340000EE
:105100000D0A53544550323A2052656769737465ED
:105110007220436F6D6D616E6428204E42204E6F89
:10512000746966792029000041300008195300088D
:105130002B4E4E4D493A00000D0A53544550333A18
:10514000205265706F7274204461746120746F2006
:1051500053657276657228204E42205265706F72D8
:1051600074202900080400206F6365616E5F736519
:105170006E645F64617461204F4B210A000000007F
:105180006F6365616E5F73656E645F6461746120F7
:105190004661696C210A000006E00021491CC9B281
:1051A0000A29FBD3401E80B20028F6D170470000C8
:1051B000074908600748016841F0807101600648AE
:1051C00000214160016841F0010101607047000069
:1051D00010040020FCED00E0001000E013B54FF6D5
:1051E000FF73012269460248FCF742FC00981CBD8F
:1051F0003C0700202DE9F04107461B4814460E46A7
:10520000406C0025804700F05BF94FF4FA60FDF731
:105210002FFD44B1207A20B1D4E9001000F00AFA41
:1052200001E000F0E9FA00F015F9044601460FA08C
:10523000FEF7F2FB002CF6D100F0F0F8044600F087
:1052400051F8641C0BD000F01DF9401C01D000F097
:1052500019F931463846BDE8F04100F039BA6D1C05
:10526000782DE9DBF5E70000B806002063616C6C7F
:10527000206E625F68775F6465746563742C726525
:10528000742069732025640A0000000030B418B14E
:10529000002901DD272903DB30BC4FF0FF307047C8
:1052A000024C646DA44630BC60470000B806002084
:1052B00008B1002902DC4FF0FF30704700F014B94C
:1052C00010B5FCF72DFCFCF7BBFE28B9FFF7D0FDAD
:1052D00010B9FFF7EFFD08B1012010BDFDF7C0FBCD
:1052E000002010BD38B507A42046FAF79AFF014602
:1052F000002000900548002305A2856C2046A847A1
:1053000038BD000041542B4353510D00B806002016
:105310002B4353513A00000030B5ADF2344D00201C
:105320000C46CDF82C0415464FF4856101A8FAF718
:105330005BFF0CB1002D0CDCFEF742FF01466A2337
:105340001F4A20A0FEF768FB4FF0FF300DF2344DEE
:1053500030BD01AB0DF22C4222A12046FAF776FFB8
:105360001E212448FAF740FFDDF82C04002804DD54
:105370004200204901A8FCF7FFFBFEF721FF014690
:105380001C48009073230E4A1BA0FEF745FB21A189
:105390001848FAF74DFF4FF0904420B90022202121
:1053A0002046FBF72BFD1CA11248FAF741FF20B95C
:1053B000012220212046FBF721FD0020C6E7000046
:1053C000746F00085B256C755D5B25733A25645D21
:1053D0005B495D706172616D20696E7661696C65B3
:1053E00064210A000D0A2B4E4E4D493A25642C25A6
:1053F000730D0A001C0700205B256C755D5B25732F
:105400003A25645D5B495D636D642069733A257379
:105410000A0A00004F4E00004F46460038B507A468
:105420002046FAF7FEFE01460020009006480023C1
:1054300006A2856C2046A84738BD000041542B4386
:10544000474154543F0D0000B806002043474154E3
:10545000543A310038B5002000900448002304A2DB
:10546000846C092104A0A04738BD0000B8060020C4
:105470002B4346554E3A310041542B4346554E3F3F
:105480000D00000038B507A42046FAF7CAFE014611
:10549000002000900648002306A2856C2046A847FD
:1054A00038BD000041542B434750414444520D0045
:1054B000B80600202B434750414444523A302C0058
:1054C00038B5002000900448002304A2846C072112
:1054D00003A0A04738BD0000B80600204F4B0000D5
:1054E00041542B4E52420D002DE9F04786B00C4638
:1054F000070032A50FF2D00A4FF000064FF0FF3937
:10550000039602D0B4F5007F09DDFEF759FE01468F
:1055100040F21F132F4A30A0FEF77EFA46E04FF408
:10552000806841463548FAF75FFE41463448FAF74D
:105530005BFE324A2146384601F090FC4146314834
:10554000FAF752FE0D202D490094CDE901102B46AB
:105550002DA241462A48FEF76FFA2948FAF761FE64
:105560002C4C00960146A56C00232BA22448A8478A
:1055700000281BDB5046FAF754FE014604A80090B1
:10558000A46C204B25A25046A04704000ED423A1B2
:105590001C48FAF734FE48B1194B03AA21A1FAF7C7
:1055A00055FE234903984A68904203D1484606B005
:1055B000BDE8F08748602046F9E7000041542B4ED3
:1055C0004D47533D0000000041542B4E514D475371
:1055D0000D000000A66F00085B256C755D5B2573F0
:1055E0003A25645D5B495D7061796C6F616420741C
:1055F0006F6F206C6F6E670A00000000A408002027
:105600002417002024130020257325642C257325DE
:1056100063000000B80600204F4B000053454E5475
:105620003D00000053454E543D25642C2573000079
:10563000540400202DE9FC41074664208846009070
:1056400014A217A4012319A11B48FEF70DFA1A484A
:10565000FAF7E7FD194E002500950146D6F848C037
:105660002B4617A21448E047CDE90078234615A23F
:105670004FF480611048FEF7DFF90F48FAF7D1FDCB
:1056800000950146B46C00230DA20B48A047BDE86D
:10569000FC81000041542B515345435357540000A3
:1056A00041542B5153455450534B000025733D2515
:1056B000642C25640D00000024170020B80600208B
:1056C0004F4B000025733D25732C25730D00000002
:1056D0002DE9F04FBBB00E4607460FF2CC0A0FF291
:1056E000D4090FF2DC0B0FF2E408802102A8FAF7CC
:1056F0007BFD642122A8FAF777FD3846FAF791FD81
:105700000024354D46283BD83046FAF78AFD142848
:1057100036D8A7B39EB33B4630A2632122A8009699
:10572000FEF78AF90D2122A8CDE9000153462DA2EA
:105730007F2102A8FEF780F902A8FAF772FD009413
:105740000146AE6C002329A202A8B047002813DB53
:105750004846FAF766FD00940146AE6C002322AA83
:105760004846B0475846FAF75CFD00940146AC6CD9
:1057700000231EA25846A0473BB000F039B8FFE70F
:105780005846FAF74EFD00940146AE6C002317A26E
:105790005846B0474046FAF744FD014600940023BE
:1057A00012A24046AC6CE6E741542B4E4344503DB8
:1057B0000000000041542B4E4344503F00000000C5
:1057C00041542B4E4E4D493D310D000041542B4369
:1057D0004D45453D310D0000B806002025732C25B0
:1057E000730D000025732573256300004F4B0000E7
:1057F00030BCBDE8C08F000038B507A42046FAF7DA
:1058000010FD0146002000900748002307A2856C88
:105810002046A84738BD000041542B5153454353FF
:1058200057543D300D000000B80600204F4B0000DB
:1058300010B586B0044614216846FAF7D5FC6946CF
:10584000204600F0B1F906B010BD4A0900EB820213
:105850000068121D884206D901F01F03012110685B
:10586000994088431060704730B502C81F314B091A
:1058700000210A4614E00468641C0FD00468E34366
:1058800001E05B08491C002BFBD14B1E01259D400C
:105890002C43046001EB4210401E30BD001D521C21
:1058A0009A42E8D34FF0FF3030BD02688A4201D8F7
:1058B000002070474A0900EB820001F01F02406897
:1058C000012191400840F4D00120704770B5054691
:1058D00001600C4601F11F00C108281DFAF784FC85
:1058E000E00608D004F01F014FF0FF308840610946
:1058F00005EB8101486070BD2DE9F04100240D46A3
:105900002746061E5ED0FAF7C1FB8046ED1C25F047
:105910000305706810E041684A000CD421F0404152
:10592000A94208D324B1626822F040428A4202D9D7
:105930000446A94221D000680028ECD1ECB360688D
:1059400020F04040401B082817D9621952F80C0F6C
:1059500020F0804042F804096168491B083961F36E
:105960001D00C2E900402146304600F012F928B37C
:105970000260606865F31D00606054F8040F20F059
:10598000004040F0804001C4144827468168294403
:1059900008318160C268914200D9C1600168491C28
:1059A00001607068406820F04040B0F5806F02D21E
:1059B0003046FFF73DFF404601E005E00CE0FAF716
:1059C0006DFB3846BDE8F08105A0FEF725F82946B5
:1059D00005A0FEF721F8E4E77260CAE71005002091
:1059E0005B4552525D200000746865726527732024
:1059F0006E6F7420656E6F7567682077686F6C6571
:105A000020746F20616C6C6F63202578204279745C
:105A10006573210A0000000070B5144628B121B159
:105A2000042C02D3651E2C4201D0002070BD2144FD
:105A3000091FFFF761FF0028F8D00119491EA9438B
:105A40008842F3D0081A40F0004041F8040C0846A0
:105A500070BD00002DE9F04101260C46050018D06C
:105A6000BCB154F8040C002802DA20F000400C1AF3
:105A70002868A04203D868680830A0420BD22EA044
:105A8000FDF7CAFF21462EA0FDF7C6FF0020BDE8A6
:105A9000F0810120FBE7FAF7F9FAA4F108020746C2
:105AA000506840000ED5286890420DD011688142A0
:105AB00008D368680830814204D8284600F069F8A5
:105AC000904201D0002631E05068224B20F0804007
:105AD00020F040415060986801F10804844204D8E5
